:100000000C942D010C9455010C9455010C94550140
:100010000C9455010C9455010C9455010C94550108
:100020000C9455010C9455010C9455010C945501F8
:100030000C9455010C9455010C9455010C945501E8
:100040000C9473040C9455010C94E3040C94BD04BB
:100050000C9455010C9455010C9455010C945501C8
:100060000C9455010C945501446563696D616C3ABB
:1000700020004865783A20202020200042696E61E7
:1000800072793A202000446563696D616C3A200002
:100090004865783A20202020200042696E617279FC
:1000A0003A20200054494D534B313A2000494352E5
:1000B000313A202020004F435231423A2020004F55
:1000C000435231413A2020005443435231423A20B6
:1000D000005443435231413A20004C616220343A8B
:1000E0002048617264776172652054696D6572732E
:1000F00000496E697469616C697A696E6720546938
:100100006D65723120696E2050434643206D6F64E7
:10011000652C20746F67676C696E67204F433142AE
:10012000206F6E2064313000796F752063616E201E
:10013000636F6D6D656E74206F75742074686520D3
:100140007072696E74696E67206F662057474D2024
:1001500076616C75657320746F20736176652074A9
:10016000696D650046697273742C2077686174202C
:10017000697320696E207468652054696D6572200A
:100180003120436F6E74726F6C20526567697374AF
:100190006572733F004C617465722C20796F752015
:1001A00077696C6C206368616E6765207468652090
:1001B00076616C75657320696E2074686520726560
:1001C000676973746572730054686520736574742D
:1001D000696E67732061726520616C6C2073746F47
:1001E00072656420696E20726567697374657273E5
:1001F000005072696E74206F757420616C6C20748D
:1002000068652064656661756C742054696D6572FB
:10021000312073657474696E6773000000000025F7
:100220000028002B0000000000240027002A000402
:10023000040404040404040202020202020303038D
:100240000303030102040810204080010204081087
:1002500020010204081020000F0611241FBECFEF5A
:10026000D8E0DEBFCDBF11E0A0E0B1E0E6EDFCE0FC
:1002700002C005900D92A635B107D9F721E0A6E599
:10028000B1E001C01D92AE3FB207E1F711E0CDE24F
:10029000D1E004C02197FE010E945E06CC32D10756
:1002A000C9F70E9415050C9469060C940000CF93C1
:1002B000DF9390E0FC01ED5BFD4F2491FC01E15DDB
:1002C000FD4F8491882361F190E0880F991FFC0114
:1002D000EB5DFD4FC591D491FC01E55EFD4FA5910D
:1002E000B491611109C09FB7F89488812095822349
:1002F0008883EC912E230BC0623061F49FB7F89491
:100300008881322F309583238883EC912E2B2C9378
:100310009FBF06C08FB7F894E8812E2B28838FBF2C
:10032000DF91CF9108953FB7F89480915D0190914E
:100330005E01A0915F01B091600126B5A89B05C048
:100340002F3F19F00196A11DB11D3FBFBA2FA92F54
:10035000982F8827820F911DA11DB11DBC01CD01D1
:1003600042E0660F771F881F991F4A95D1F70895BD
:100370008F929F92AF92BF92CF92DF92EF92FF92B5
:100380006B017C010E9493014B015C01C114D104FB
:10039000E104F104F1F00E949301DC01CB01881922
:1003A0009909AA09BB09883E9340A105B10570F3DC
:1003B00021E0C21AD108E108F10888EE880E83E036
:1003C000981EA11CB11CC114D104E104F10419F759
:1003D000DDCFFF90EF90DF90CF90BF90AF909F90D8
:1003E0008F900895CF92DF92EF92FF920F931F9319
:1003F000CF93DF936C017A018B01C0E0D0E0CE1582
:10040000DF0581F0D8016D918D01D601ED91FC9150
:100410000190F081E02DC6010995892B11F02196FC
:10042000EECF7E01C701DF91CF911F910F91FF9019
:10043000EF90DF90CF900895089580E090E00895C8
:10044000FC01538D448D252F30E0842F90E0821BDA
:10045000930B541710F0CF96089501970895FC015F
:10046000918D828D981761F0828DDF01A80FB11DEB
:100470005D968C91928D9F5F9F73928F90E008950F
:100480008FEF9FEF0895FC01918D828D981731F0C9
:10049000828DE80FF11D858D90E008958FEF9FEF1D
:1004A0000895FC01918D228D892F90E0805C9F4FF3
:1004B000821B91098F739927089581E691E00E942C
:1004C000510221E0892B09F420E0822F0895FC01DC
:1004D000848DDF01A80FB11DA35ABF4F2C91848DCD
:1004E00090E001968F739927848FA689B7892C9302
:1004F000A089B1898C91837080648C93938D848D55
:10050000981306C00288F389E02D80818F7D808357
:100510000895EF92FF920F931F93CF93DF93EC0117
:1005200081E0888F9B8D8C8D981305C0E889F989AF
:10053000808185FD26C0F62E0B8D10E00F5F1F4FCA
:100540000F731127E02E8C8DE8120CC00FB607FC3C
:10055000FACFE889F989808185FFF5CFCE010E9425
:100560006702F1CF8B8DFE01E80FF11DE35AFF4FBB
:10057000F0829FB7F8940B8FEA89FB8980818062B3
:100580000AC09FB7F894EE89FF896083E889F989EA
:1005900080818370806480839FBF81E090E0DF91E1
:1005A000CF911F910F91FF90EF9008950F931F939C
:1005B000CF93DF938C01C0E0D0E0F801EC0FFD1F7A
:1005C0006491662341F081E691E00E948902892BC3
:1005D00011F02196F2CFCE01DF91CF911F910F91B3
:1005E0000895CF93DF93EC01888D8823C9F0EA89C1
:1005F000FB89808185FD05C0A889B9898C9186FD1C
:100600000FC00FB607FCF5CF808185FFF2CFA88918
:10061000B9898C9185FFEDCFCE010E946702E7CFAB
:10062000DF91CF91089580E090E0892B29F00E941E
:100630005D0281110C9400000895009769F0FC019F
:1006400001900020E9F73197AF01481B590BBC011D
:1006500081E691E00C94F20180E090E0089582E15F
:1006600091E00C941D03CF93DF930E94D602EC011E
:100670000E942F038C0F9D1FDF91CF9108958F92C1
:100680009F92AF92BF920F931F93CF93DF93CDB7FB
:10069000DEB7A1970FB6F894DEBF0FBECDBF19A28B
:1006A000423008F44AE08E010F5D1F4F842E912CDA
:1006B000A12CB12CA50194010E943C06E62FB901A2
:1006C000CA0101501109EA3014F4E05D01C0E95C8F
:1006D000D801EC93232B242B252B61F7C8010E9412
:1006E0001D03A1960FB6F894DEBF0FBECDBFDF91FC
:1006F000CF911F910F91BF90AF909F908F900895D1
:100700000C941D030E946406EF92FF920F931F93B7
:10071000CF93DF938C018AE990E00E94D602C02F2C
:1007200085E191E00E94800388E0E82EF12CD0E87A
:100730008C2F8D2311F460E301C061E381E691E029
:100740000E948902D69581E0E81AF10889F787E1CD
:1007500091E00E94800380E990E00E94D6028AE145
:1007600091E00E948003C03120F48DE191E00E946D
:1007700080036C2F70E080E090E040E10E943F0336
:1007800088E191E00E94800386E890E00E94D60212
:10079000B80180E090E04AE00E943F03DF91CF91F2
:1007A0001F910F91FF90EF900C942F03EF92FF9207
:1007B0000F931F93CF93DF93EC018CE790E00E949F
:1007C000D60285E191E00E94800300E110E0E12C77
:1007D00020E8F22ECE018E219F21892B11F460E3B7
:1007E00001C061E381E691E00E948902F694E794FA
:1007F0000150110979F788E191E00E94800382E7B6
:1008000090E00E94D6028AE191E00E948003ED2EE2
:10081000FF241C2F8FE08E1520F08DE191E00E94C7
:100820008003B70180E090E040E10E943F03103177
:1008300020F48DE191E00E948003612F70E080E060
:1008400090E040E10E943F0388E191E00E94800334
:1008500088E690E00E94D602BE0180E090E04AE087
:100860000E943F03DF91CF911F910F91FF90EF9076
:100870000C942F0381ED90E00E94D60280918000BD
:1008800090E00E94840388EC90E00E94D602809160
:10089000810090E00E9484038FEB90E00E94D602DA
:1008A00080918800909189000E94D60386EB90E0A9
:1008B0000E94D60280918A0090918B000E94D603FC
:1008C0008DEA90E00E94D602809186009091870088
:1008D0000E94D60384EA90E00E94D60280916F00C5
:1008E00090E00C9484031F920F920FB60F92112484
:1008F0002F933F938F939F93AF93BF938091590111
:1009000090915A01A0915B01B0915C013091580126
:1009100023E0230F2D3720F40196A11DB11D05C042
:1009200026E8230F0296A11DB11D20935801809344
:10093000590190935A01A0935B01B0935C0180919F
:100940005D0190915E01A0915F01B09160010196FF
:10095000A11DB11D80935D0190935E01A0935F0185
:10096000B0936001BF91AF919F918F913F912F9173
:100970000F900FBE0F901F9018951F920F920FB6F9
:100980000F9211242F933F934F935F936F937F9315
:100990008F939F93AF93BF93EF93FF9381E691E083
:1009A0000E946702FF91EF91BF91AF919F918F914C
:1009B0007F916F915F914F913F912F910F900FBE5B
:1009C0000F901F9018951F920F920FB60F9211243F
:1009D0002F938F939F93EF93FF93E0917101F09189
:1009E00072018081E0917701F091780182FD12C05F
:1009F000908180917A018F5F8F7320917B018217A4
:100A000051F0E0917A01F0E0EF59FE4F958F80931D
:100A10007A0101C08081FF91EF919F918F912F9179
:100A20000F900FBE0F901F901895789484B5826038
:100A300084BD84B5816084BD85B5826085BD85B582
:100A4000816085BD80916E00816080936E00109200
:100A5000810080918100826080938100809181007B
:100A6000816080938100809180008160809380000C
:100A70008091B10084608093B1008091B00081606A
:100A80008093B00080917A00846080937A00809196
:100A90007A00826080937A0080917A0081608093EE
:100AA0007A0080917A00806880937A001092C10069
:100AB000E0917101F091720182E08083E0916D011B
:100AC000F0916E011082E0916F01F09170018FEC56
:100AD000808310927901E0917501F091760186E0B2
:100AE0008083E0917301F091740180818061808343
:100AF000E0917301F0917401808188608083E091BE
:100B00007301F0917401808180688083E0917301AA
:100B1000F091740180818F7D80838AED90E00E9446
:100B2000330381EF91E00E94330388EC91E00E944F
:100B3000330385E991E00E9433030E942F0384E68A
:100B400091E00E9433030E943A0460E47FE180E078
:100B500090E00E94B80188E291E00E9433030E9475
:100B60002F0368EE73E080E090E00E94B80181EF0F
:100B700090E00E9433038FB790E0909357018093E9
:100B80005601F8941092800010928100109280001B
:100B900080E1809381008091800080638093800059
:100BA00080918000806880938000809180008062C6
:100BB00080938000809180008F7E80938000809160
:100BC000810083608093810080E197E290938700A9
:100BD0008093860081E792E090938900809388005B
:100BE00090938B0080938A007894809156018FBFF8
:100BF0000E943A0461E089E00E94570161E08AE0C6
:100C00000E94570160E08DE00E9457010E942F036F
:100C10008FE191E00E941D030E942F03FFCFE1E6C8
:100C2000F1E01382128288EE93E0A0E0B0E08483CA
:100C30009583A683B78384E091E09183808385ECDC
:100C400090E09587848784EC90E09787868780EC96
:100C500090E0918B808B81EC90E0938B828B82EC87
:100C600090E0958B848B86EC90E0978B868B118E31
:100C7000128E138E148E0895A1E21A2EAA1BBB1B8E
:100C8000FD010DC0AA1FBB1FEE1FFF1FA217B30758
:100C9000E407F50720F0A21BB30BE40BF50B661F6E
:100CA000771F881F991F1A9469F760957095809532
:100CB00090959B01AC01BD01CF010895EE0FFF1F80
:100CC0000590F491E02D099481E090E0F8940C9463
:060CD0006906F894FFCF55
:100CD600000000008902F2012002F10251022F02F7
:100CE60043020D0A0042000909003078003000492D
:100CF600276D20726561647920746F20626C696E5D
:100D06006B206E6F772E20417474616368206120BA
:100D1600776972652066726F6D2070696E20392062
:060D2600746F2031330060
:107E0000112484B714BE81FFF0D085E080938100F7
:107E100082E08093C00088E18093C10086E0809377
:107E2000C20080E18093C4008EE0C9D0259A86E02C
:107E300020E33CEF91E0309385002093840096BBD3
:107E4000B09BFECF1D9AA8958150A9F7CC24DD24C4
:107E500088248394B5E0AB2EA1E19A2EF3E0BF2EE7
:107E6000A2D0813461F49FD0082FAFD0023811F036
:107E7000013811F484E001C083E08DD089C08234E0
:107E800011F484E103C0853419F485E0A6D080C0E4
:107E9000853579F488D0E82EFF2485D0082F10E0AE
:107EA000102F00270E291F29000F111F8ED06801E7
:107EB0006FC0863521F484E090D080E0DECF843638
:107EC00009F040C070D06FD0082F6DD080E0C81688
:107ED00080E7D80618F4F601B7BEE895C0E0D1E017
:107EE00062D089930C17E1F7F0E0CF16F0E7DF06D8
:107EF00018F0F601B7BEE89568D007B600FCFDCFD4
:107F0000A601A0E0B1E02C9130E011968C91119780
:107F100090E0982F8827822B932B1296FA010C0160
:107F200087BEE89511244E5F5F4FF1E0A038BF0790
:107F300051F7F601A7BEE89507B600FCFDCF97BE46
:107F4000E89526C08437B1F42ED02DD0F82E2BD052
:107F50003CD0F601EF2C8F010F5F1F4F84911BD097
:107F6000EA94F801C1F70894C11CD11CFA94CF0C13
:107F7000D11C0EC0853739F428D08EE10CD085E9AC
:107F80000AD08FE07ACF813511F488E018D01DD067
:107F900080E101D065CF982F8091C00085FFFCCF94
:107FA0009093C60008958091C00087FFFCCF809118
:107FB000C00084FD01C0A8958091C6000895E0E648
:107FC000F0E098E1908380830895EDDF803219F02E
:107FD00088E0F5DFFFCF84E1DECF1F93182FE3DFCA
:107FE0001150E9F7F2DF1F91089580E0E8DFEE27F6
:047FF000FF270994CA
:027FFE00040479
:0400000300007E007B
:00000001FF
